:080677003099FDC2998F992210
:08067F0073746172740D0A002E
:0C066A004100260041002700410025004F
:10063600900021EBF0A3EAF0A3E9F0900021E0FBA3
:10064600A3E0FAA3E0F91200266018900021E0A3C7
:10065600E475F00112003FA9F0FA120026FF120617
:040666008F80D82287
:1002F800E4F5B1F5B2F5B3F5B4F5ACF5AD53B3FB30
:1003080043B404FF7EC27D01FC1205FD7598D0D26E
:10031800ACD2AF7BFF7A06797F120636C296900080
:1003280026E004F07F0A7E007D007C001203C59061
:100338000026E0C3940A400AA3E06401F0E49000B8
:1003480026F07598C0900027E0B40104D29B800283
:0D035800C29B7FC012068F7598D080C22214
:03002300020003D5
:10000300C0E0C083C08230980AC298900025E59969
:0F001300F0B296309902C299D082D083D0E032F9
:10036500900000120147538EF75389F0438901D25B
:100375008CE4FFFEFDFC900000E0F8A3E0F9A3E0AB
:10038500FAA3E0FBC31201236033758AF3758CFF72
:10039500308DFDC28D900000E0FCA3E0FDA3E0FEE2
:1003A500A3E0FF74FFEF24FFFFEE34FFFEED34FF03
:1003B500FDEC34FFFC90000012014780B4C28C2292
:10054300900004120147538EF7438901D28CE4FFD4
:10055300FEFDFC900004E0F8A3E0F9A3E0FAA3E0B9
:10056300FBC31201236033758A7E758CFF308DFDCA
:10057300C28D900004E0FCA3E0FDA3E0FEA3E0FF36
:1005830074FFEF24FFFFEE34FFFEED34FFFDEC3488
:0D059300FFFC90000412014780B4C28C22CE
:1003C500900021120147538EF75389F0438901D2DA
:1003D5008CE4FFFEFDFC900021E0F8A3E0F9A3E02A
:1003E500FAA3E0FBC31201236033758ACA758CFA40
:1003F500308DFDC28D900021E0FCA3E0FDA3E0FE61
:10040500A3E0FF74FFEF24FFFFEE34FFFEED34FFA2
:10041500FDEC34FFFC90002112014780B4C28C2210
:1005A000900009120147538EEF438910D28EE4FF69
:1005B000FEFDFC900009E0F8A3E0F9A3E0FAA3E057
:1005C000FBC31201236033758BEA758DCB308FFD31
:1005D000C28F900009E0FCA3E0FDA3E0FEA3E0FFD2
:1005E00074FFEF24FFFFEE34FFFEED34FFFDEC342B
:0D05F000FFFC90000912014780B4C28E226A
:1004250090000D12014753C9BF53C9DF43C910D20C
:10043500CAE4FFFEFDFC90000DE0F8A3E0F9A3E09F
:10044500FAA3E0FBC3120123603375CC3075CDF8F8
:1004550030CFFDC2CF90000DE0FCA3E0FDA3E0FE90
:10046500A3E0FF74FFEF24FFFFEE34FFFEED34FF42
:10047500FDEC34FFFC90000D12014780B4C2CA2286
:1004850090001112014775C40743C408E4FFFEFD3F
:10049500FC900011E0F8A3E0F9A3E0FAA3E0FBC3A8
:1004A500120123603675C52C75C6CFE5C430E4FB53
:1004B50053C4EF900011E0FCA3E0FDA3E0FEA3E030
:1004C500FF74FFEF24FFFFEE34FFFEED34FFFDEC7C
:0F04D50034FFFC90001112014780B153C4F7228D
:1004E40090001512014775C40743C408E4FFFEFDDC
:1004F400FC900015E0F8A3E0F9A3E0FAA3E0FBC345
:10050400120123603675C5D875C6FFE5C430E4FB17
:1005140053C4EF900015E0FCA3E0FDA3E0FEA3E0CC
:10052400FF74FFEF24FFFFEE34FFFEED34FFFDEC1C
:0F05340034FFFC90001512014780B153C4F72229
:1005FD0053B1BF53B2BF53B17F53B27F75985043C0
:10060D008920438780438E1053C4DFAB07AA06A908
:10061D0005A8047F407E427D0F7C00120091EF04FF
:09062D00F404F58DD28ED299225D
:1001FF0090001912014753B1BF53B2BF53B17F5390
:10020F00B27F75985043878053C4F843C420900041
:10021F0019E0F8A3E0F9A3E0FAA3E0FB7F407E42E8
:10022F007D0F7C00120091C374FF9FFF74FF9EFE31
:10023F00E49DFDE49CFC78081201348FC6900019F0
:10024F00E0F8A3E0F9A3E0FAA3E0FB7F407E427D54
:10025F000F7C00120091C374FF9FFF74FF9EFEE49A
:0F026F009DFDE49CFCEFE48FC543C408D29922A7
:070687003098FDAF99C29805
:01068E002249
:08068F00C2998F993099FD22F8
:10027E0090001D12014753B1FB53B2FB53B3BF5352
:10028E00B4BF75F85075C40853C4DF90001DE0F874
:10029E00A3E0F9A3E0FAA3E0FB7F407E427D0F7C52
:1002AE0000120091C374FF9FFF74FF9EFEE49DFD3C
:1002BE00E49CFC78081201348FC690001DE0F8A370
:1002CE00E0F9A3E0FAA3E0FB7F407E427D0F7C00C5
:1002DE00120091C374FF9FFF74FF9EFEE49DFDE428
:0A02EE009CFCEFE48FC543C4082216
:0706970030F8FDAF9AC2F834
:01069E002239
:08069F00C2F98F9A30F9FD2227
:03000000020153A7
:1001530075C7AA75C75575FD5A75C7AA75C755756D
:10016300FDA5787FE4F6D8FD9000007FFF7E03E4D1
:0C017300F0A3DFFCDEFA7581800201BA07
:10017F000202F8E493A3F8E493A34003F68001F29C
:10018F0008DFF48029E493A3F85407240CC8C33381
:10019F00C4540F4420C8834004F456800146F6DF50
:1001AF00E4800B010204081020408090066AE47E70
:1001BF00019360BCA3FF543F30E509541FFEE49345
:1001CF00A360010ECF54C025E060A840B8E493A30C
:1001DF00FAE493A3F8E493A3C8C582C8CAC583CA37
:1001EF00F0A3C8C582C8CAC583CADFE9DEE780BEEF
:010676000083
:10002600BB010689828A83E0225002E722BBFE02D8
:09003600E32289828A83E493220B
:10003F00A3F8E0C5F025F0F0E58215827002158374
:06004F00E0C838F0E822D1
:1000550075F008758200EF2FFFEE33FECD33CDCC62
:1000650033CCC58233C5829BED9AEC99E5829840E5
:100075000CF582EE9BFEED9AFDEC99FC0FD5F0D6C2
:10008500E4CEFBE4CDFAE4CCF9A88222B800C1B9EC
:100095000059BA002DEC8BF084CFCECDFCE5F0CB2A
:1000A500F97818EF2FFFEE33FEED33FDEC33FCEB63
:1000B50033FB10D703994004EB99FB0FD8E5E4F91E
:1000C500FA227818EF2FFFEE33FEED33FDEC33FC0B
:1000D500C933C910D7059BE99A4007EC9BFCE99AFF
:1000E500F90FD8E0E4C9FAE4CCFB2275F010EF2F44
:1000F500FFEE33FEED33FDCC33CCC833C810D70744
:100105009BEC9AE899400AED9BFDEC9AFCE899F87E
:0E0115000FD5F0DAE4CDFBE4CCFAE4C8F92211
:10012300EB9FF5F0EA9E42F0E99D42F0E89C45F032
:0101330022A9
:10013400E8600FECC313FCED13FDEE13FEEF13FFA9
:03014400D8F122CD
:0C014700ECF0A3EDF0A3EEF0A3EFF0222B
:00000001FF
