:020000040800F2
:100000005805002001010008E70E0008170E00083F
:10001000E50E00086D01000805130008000000004F
:100020000000000000000000000000000B0F0008AE
:100030006F01000800000000090F00080D0F000804
:100040001B0100081B0100081B0100081B01000820
:100050001B0100081B0100081B0100081B01000810
:100060001B0100081B0100081B0100081B01000800
:100070001B0100081B0100081B0100081B010008F0
:100080001B0100081B0100081B0100081B010008E0
:100090001B0100081B0100081B0100081B010008D0
:1000A0001B0100081B0100081B0100081B010008C0
:1000B0001B0100081B0100081B0100081B010008B0
:1000C0001B0100081B0100081B0100081B010008A0
:1000D0001B010008B51200081B0100081B010008E5
:1000E0001B0100081B0100081B010008DFF80CD0F1
:1000F00000F02AF8004800477D130008580500204A
:100100000648804706480047FEE7FEE7FEE7FEE7B1
:10011000FEE7FEE7FEE7FEE7FEE7FEE7710F0008F9
:10012000ED000008D2B201E000F8012B491EFBD21D
:1001300070470022F6E710B513460A4604461946F2
:10014000FFF7F0FF204610BD064C074D06E0E068C3
:1001500040F0010394E8070098471034AC42F6D30E
:10016000FFF7C8FF4814000868140008FEE770474E
:100170007047000010B590F821100024022903D028
:100180000421816301243DE001680A6822F00E0227
:100190000A6001680A6822F001020A601A4A0168CE
:1001A000914201D1012121E0174A1432914201D13B
:1001B00010211BE0144A2832914201D1891515E023
:1001C000114A3C32914201D189140FE00E4A50325B
:1001D000914202D14FF4803108E00B4A64329142DF
:1001E00002D14FF4801101E04FF08071064A083AC5
:1001F0005160012180F82110002180F82010416B0E
:1002000001B18847204610BD080002402DE9F84F93
:10021000DFF890A100220AF1040B144601274FF0E9
:100220000F090BF1040E00BF0B6807FA04F52B4011
:10023000AB4274D1DFF870C14E68A6EB0C0866457E
:100240002BD00DDC032E34D005DC36B3012E19D0B3
:10025000022E2FD11BE0112E16D0122E2AD119E01A
:10026000B8F5881F19D006DCB8F5803F15D0B8F571
:10027000801F1FD111E0B8F5001F0ED0B8F5041F84
:1002800018D10AE0CA6815E0CA68121D12E0CA68EF
:1002900008320FE0CA680C320CE08A682AB1012AE1
:1002A0004FF0080203D0456104E0042202E005613A
:1002B00000E00022FF2B01D8064601E000F1040611
:1002C0004FEA840501D9A5F12005D6F800C009FA46
:1002D00005F82CEA080C02FA05F54CEA050CC6F8FC
:1002E00000C04D68ED0057D5304DAE6946F00106AF
:1002F000AE61AD6924F0030605F0010500952C4DB3
:1003000006EB050CDCF80850A6074FEA167809FA48
:1003100008F6B543274EB04202D1002610E03BE07C
:10032000254EB04201D101260AE0244EB04201D14F
:10033000022605E0224EB04201D1032600E0042649
:1003400006FA08F62E43CCF808604D68DAF800602B
:10035000ED03554601D51E4300E09E432E604D68D7
:10036000DBF80060AD035D4601D51E4300E09E430F
:100370002E604D68DEF80060ED02754601D51E4323
:1003800000E09E432E604D68AD020E4D2E6801D5F3
:100390001E4300E09E432E60641C102CFFF444AF0B
:1003A000BDE8F88F00040140000011100010024069
:1003B0000000014000080140000C01400010014015
:1003C000001401400C04014001488068704700009F
:1003D0000800002090F83810012912D0012100F8FF
:1003E000381F2421417050F8381CCA6822F00C02D2
:1003F00042F00402CA6020214170002101700846C9
:1004000070470220704790F83810012912D001215E
:1004100000F8381F2421417050F8381CCA6822F0B7
:100420000C0242F00802CA602021417000210170D4
:10043000084670470220704770B5040004D094F855
:100440003900002510B106E0012070BD84F8385055
:10045000204600F0E9FB242084F839002068C168B8
:1004600021F40051C160204600F008FE20680169B7
:1004700021F4904101612068416921F0220141612C
:100480002068416941F0080141612068C16841F478
:100490000051C160E563202084F8390084F83A00F7
:1004A000002070BD02488168027811448160704765
:1004B00008000020074810B5016841F010010160F4
:1004C000032000F073F8002000F006F800F024F894
:1004D000002010BD0020024070B50D4D04464FF4C1
:1004E0007A712878B1FBF0F00A490968B1FBF0F0A5
:1004F00000F0FCFA48B9102C07D200222146501E09
:1005000000F034F800206C6070BD012070BD000068
:1005100008000020040000200C4808B5816941F063
:1005200001018161816901F001010091C16941F01E
:100530008051C161C06900F080500090044841685A
:1005400021F0E06141F00071416008BD00100240FF
:100550000000014000F01F0201219140400980008D
:1005600000F1E020C0F8001170470000F0B40E4B1D
:100570001B680C46C3F30223C3F10705042D00D901
:100580000425191D072901D2002300E0DB1E0126E6
:1005900006FA05F1491E214099409E40761E1640FC
:1005A0003143F0BC00F0A0BC0CED00E0064900F0C7
:1005B000070208684FF6FF03184040EA0220034A8A
:1005C00010430860704700000CED00E00000FA05E1
:1005D0002DE9F047DFF8548105460E46D8F80000B3
:1005E00000F00700B0420CD2D8F8001021F007014B
:1005F0003143C8F80010D8F8000000F00700B042FE
:100600006FD128684A4C810712D5400703D560682E
:1006100040F4E06060602878000703D5606840F42B
:10062000605060606068A96820F0F0000843606076
:100630002878C00744D06868012816D021680228AD
:1006400016D0890700294CDA616821F003010143C3
:100650006160FFF7B9FE6968074641F288300129F9
:100660000ED00229814618D026E021688903E9E7E7
:100670008901E7E7FFF7A8FEC11B494501D918E04A
:1006800081466068C0F381000128F3D118E000BF03
:10069000FFF79AFEC11B49450BD86068C0F3810083
:1006A0000228F5D10CE000BFFFF78EFEC11B4945C3
:1006B00002D90320BDE8F087606810F00C0FF3D179
:1006C000D8F80010404601F00701B1420BD901688B
:1006D00021F0070131430160006800F00700B042DB
:1006E00001D00120E6E72878400705D56068E96871
:1006F00020F4E060084360602878000706D5606851
:10070000296920F4605040EAC100606000F036F8CA
:100710006168084AC1F30311515CC840064908608A
:100720000020FFF7D9FE0020C4E7000000200240AF
:10073000001002403014000804000020044805495D
:1007400000684968044AC1F30221515CC8407047FF
:10075000040000200010024040140008044805492D
:1007600000684968044AC1F3C221515CC84070471F
:1007700004000020001002404014000812A185B0BF
:100780000FC98DE80F0014A0144A00680490516846
:10079000134801F00C03042B10D0082B0ED1C1F329
:1007A0008343C9031DF803000AD5516804AAC1F3A5
:1007B0004041515C0A4A5043B0FBF1F005B070472C
:1007C00008494843FAE70000020304050607080940
:1007D0000A0B0C0D0E0F1010010200000010024059
:1007E00000127A0000093D002DE9F84F0446007818
:1007F000B94DC00748D06868C0F38100012807D010
:100800006868C0F38100022809D16868C00306D572
:100810002868800338D5606800286FD034E06068AD
:10082000B0F5803F0BD010B1B0F5A02F11D02868E3
:1008300020F480302860286820F4802002E02868B6
:1008400040F480302860606888B1FFF7BDFD06463F
:1008500009E0286840F480202860F0E7FFF7B4FD45
:10086000801B642875D828688003F7D50CE0FFF753
:10087000ABFD064605E000BFFFF7A6FD801B642820
:10088000F0D828688003F7D42078944E80074FF082
:1008900001094FF000083BD5686810F00C0F07D035
:1008A0006868C0F38100022809D16868C00306D4D3
:1008B0002868800714D5206901281FD110E020691D
:1008C000B0B1C6F80090FFF77FFD074605E000BF16
:1008D000FFF77AFDC01B0228C4D828688007F7D527
:1008E0002868616920F0F80040EAC10028600FE044
:1008F000C6F80080FFF768FD074606E0E9E000BFA4
:10090000FFF762FDC01B022823D828688007F7D4B0
:10091000207800072CD57248A169D9B1C0F80090A1
:10092000FFF752FD074604E0FFF74EFDC01B02280B
:100930000FD8686A8007F7D56A484FF4FA51006803
:10094000B0FBF1F0009000BF0098411E0091FAD278
:100950000EE080E0C0F80080FFF736FD074604E0B7
:10096000FFF732FDC01B022875D8686A8007F7D4EC
:100970002078400760D5E8690027C00008D4E869FE
:1009800040F08050E861E869012700F08050009055
:1009900055480168C90513D40168834641F4807144
:1009A0000160FFF711FD824606E000BFFFF70CFD76
:1009B000A0EB0A0064284ED8DBF80000C005F5D58E
:1009C000E06801280AD008B1052813D0286A20F071
:1009D00001002862286A20F0040002E0286A40F042
:1009E00001002862E06841F2883B98B1FFF7ECFC17
:1009F00082460BE0286A40F004002862EEE700BF60
:100A0000FFF7E2FCA0EB0A0159455AD8286A800793
:100A1000F6D50CE0FFF7D8FC824605E0FFF7D4FCE2
:100A2000A0EB0A0159454CD8286A8007F6D41FB1BB
:100A3000E86920F08050E861E06988B36968C1F333
:100A40008101022945D00228C6F8608004D0FFF752
:100A5000BBFC044638E034E0FFF7B6FC074604E090
:100A6000FFF7B2FCC01B02282BD828688001F7D4FE
:100A7000206AB0F5803F05D16868A16820F4003095
:100A800008436860D4E908010843696821F47411D7
:100A900008436860C6F86090FFF796FC044606E0DD
:100AA00015E000BFFFF790FC001B022809D828685A
:100AB0008001F7D50BE000BFFFF786FC001B022882
:100AC00002D90320BDE8F88F28688001F4D4002003
:100AD000F8E70120F6E70000001002400000424263
:100AE00080044242040000200070004010B5401E07
:100AF000B0F1807F01D3012010BD4FF0E024606190
:100B00000F21601700F0F0F90020A061072020619C
:100B1000002010BD7047000070B5026804461068E0
:100B2000D168536910F00F0F51D003F0010501F4A3
:100B3000907635435DD0C20705D0CA0503D5E26B78
:100B400042F00102E263420705D5DA0703D0E26B07
:100B500042F00202E263820705D5DA0703D0E26BB6
:100B600042F00402E263020705D5DA0703D0E26B24
:100B700042F00802E263E26B002A34D0800604D51A
:100B8000880602D5204600F02DFA20684069E16B06
:100B9000C0F3801001F008010143204624D000F08A
:100BA00013FA2068416949061AD5416921F04001CC
:100BB0004161606BA0B11B494163606BFFF7DAFADA
:100BC000002810D0606B416BBDE870400847830679
:100BD0000FD58B060DD52046BDE8704000F002BA57
:100BE0002046FFF797FF70BDFFF794FF0020E063FA
:100BF00070BD030606D50B0604D52046BDE870403F
:100C000000F0F4BA4006F3D54806F1D5D168204685
:100C100021F04001D160202184F8391000F0FAF869
:100C200070BD0000B90F000810B586B00446002062
:100C3000009001900290039016492068884227D1C5
:100C40001549886940F480408861886900F48040D3
:100C50000490886940F004008861886900F004000D
:100C600004904815009012200190032003906946DB
:100C70000A48FFF7CBFA002201212520FFF776FC76
:100C80002520FFF767FC2068C16841F02001C160A2
:100C900006B010BD003801400010024000080140BD
:100CA0002DE9F843044690F83A00994616460D4659
:100CB00020284FD195B18EB194F83800012849D041
:100CC000012084F838000027E763222084F83A00E6
:100CD000FFF77AFBA6858046E68531E00120BDE876
:100CE000F883E08D401EE085A0684346B0F5805F44
:100CF0004FF000024FF020012046CDF8009004D0C4
:100D000000F0A5FA98B10320E9E700F0A0FA002866
:100D1000F9D1206900282068406803D0C1B225F8C5
:100D2000011B0DE0C0F3080125F8021B08E0206953
:100D300000282068406801D000F07F0005F8010B12
:100D4000E08D0028CDD1202084F83A0084F8387056
:100D50000020C4E70220C2E770472DE9F8430446AB
:100D600090F839001F4616460D46202850D1A5B1EF
:100D70009EB194F8380001284AD0012084F8380048
:100D80004FF00008C4F83C80212084F83900FFF7B8
:100D90001BFBA6848146E68426E00120BDE8F8839B
:100DA000E08C401EE084A0684B46B0F5805F4FF0B9
:100DB00000024FF080012046009703D000F047FA70
:100DC000E8B90DE000F043FAC8B928882168C0F3FB
:100DD00008004860206908B16D1C05E0AD1C03E007
:100DE000216815F8010B4860E08C0028D8D14B46EB
:100DF000002240212046009700F029FA08B1032084
:100E0000CCE7202084F8390084F838800020C5E73A
:100E10000220C3E77047FEE710B586B000200290BD
:100E200003901E48816941F010018161816901F0E0
:100E300010010491816941F020018161816901F013
:100E400020010491816941F004018161816901F00F
:100E500004010491816941F00801816180690324E2
:100E600000F0080004904FF46040CDE900046946AA
:100E70000B48FFF7CBF949F6FF50CDE9000469466E
:100E80000848FFF7C3F94FF6FF70CDE90004694643
:100E90000548FFF7BBF906B010BD00000010024086
:100EA0000010014000080140000C01400C4810B542
:100EB0000A4901604FF4E1314160002181600C2258
:100EC000C160C0E904128161C161FFF7B5FA002871
:100ED00003D0BDE81040FFF74BB910BD003801400A
:100EE00018010020FEE770470907090E002806DAFE
:100EF00000F00F0000F1E02080F8141D704700F1B1
:100F0000E02080F800147047704770470349087864
:100F1000142801D2401C0870FFF7C4BA000000205A
:100F200030B58FB028216846FFF703F914210AA8CD
:100F3000FFF7FFF801210804CDE900100024029416
:100F400002250491CDE907504FF4E010099068465E
:100F5000FFF74AFC0F20CDE90A056802CDE90C40F5
:100F600002210AA80E94FFF733FB0FB030BD00003A
:100F70000D48016841F00101016041680B4A1140D0
:100F8000416001680A4A11400160016821F4802132
:100F90000160416821F4FE0141604FF41F0181604E
:100FA0000449C00308607047001002400000FFF8C9
:100FB000FFFFF6FE08ED00E010B5406A0021C18594
:100FC000C184FFF7A7FD10BD0168CA6822F49072C2
:100FD000CA6001684A6922F001024A61202180F852
:100FE0003A10704710B590F83A10222901D002202B
:100FF00010BD8168B1F5805F11D0016900290168D9
:101000001FD0496801F07F03816A4A1C82620B701D
:10101000C18D491E0904090CC18518D02BE0026955
:10102000816A002A0268526805D0D2B20A80816AB9
:10103000491C8162ECE7C2F308020A80816A891CBC
:10104000F7E74A68816A4B1C83620A70E0E701682F
:10105000CA6822F02002CA600168CA6822F480725D
:10106000CA6001684A6922F001024A61202180F8C1
:101070003A10FFF771FE002010BD00002DE9F0418D
:10108000044600680169E26821F44051114301619E
:101090002169A0680843616908432168CA6841F270
:1010A0000C639A430243CA6020684169A26921F433
:1010B0004071114341614C492068642532268842C1
:1010C0003CD1FFF74BFB00EBC00101EB0010616866
:1010D0008900B0FBF1F7FFF741FB00EBC00101EB2A
:1010E00000106168B0468900B0FBF1F0B0FBF5F08C
:1010F0006FF01801484307EB800106EB0110B0FBCD
:10110000F5F000F0F006FFF729FB00EBC00101EB62
:10111000001061688900B0FBF1F0B0FBF5F006EB60
:101120000016FFF71BFB00EBC00101EB001061682C
:101130008900B0FBF1F7FFF711FB3BE0FFF7FEFA88
:1011400000EBC00101EB001061688900B0FBF1F712
:10115000FFF7F4FA00EBC00101EB00106168B04644
:101160008900B0FBF1F0B0FBF5F06FF018014843D7
:1011700007EB800106EB0110B0FBF5F000F0F00684
:10118000FFF7DCFA00EBC00101EB00106168890099
:10119000B0FBF1F0B0FBF5F006EB0016FFF7CEFA6E
:1011A00000EBC00101EB001061688900B0FBF1F7B2
:1011B000FFF7C4FA00EBC00101EB00106168890081
:1011C000B0FBF1F0B0FBF5F06FF01801484307EB0E
:1011D000800108EB0110B0FBF5F0216800F00F0072
:1011E00030448860BDE8F0810038014090F8391043
:1011F000212901D0022070478168B1F5805F016A22
:101200000BD04A1C0262026809785160C18C491EE9
:101210000904090CC1840ED017E009880268C1F3E3
:101220000801516001690029016A02D0491C01626C
:10123000ECE7891CFBE70168CA6822F08002CA60FB
:101240000068C16841F04001C160002070472DE98D
:10125000F041984617460E460446069D1DE0681C60
:101260001BD02DB1FFF7B0F8A0EB0800A84214D9AD
:101270002068C16821F4D071C1602068416921F003
:1012800001014161202084F8390084F83A000020EF
:1012900084F838000320BDE8F0812068006836EA51
:1012A000000004D00020B842D9D00020F3E701208C
:1012B000F9E7000070B50F4D28680068C04380064C
:1012C00012D40D4900200E4C08700C48217864237C
:1012D000014401222846FFF7E3FC2078401C2070DF
:1012E00029686FF020000860BDE870400148FFF7F2
:1012F00013BC00001801002000000020180000208E
:1013000002000020FEE70000014A024900F013B885
:10131000591300081400002002E008C8121F08C179
:10132000002AFAD170477047002001E001C1121F66
:10133000002AFBD170472DE9F04116460F460446BE
:10134000002503E03946B047641C6D1C2078002856
:10135000F8D12846BDE8F08108B58DF800000648B0
:10136000FFF751F86423012269460348FFF7F5FCB3
:101370000148FFF72FF808BD18010020FFF79AF881
:10138000FFF7CEFDFFF748FDFFF790FD18A0FFF730
:10139000BBFFDFF88480214C98F800102078814250
:1013A000FAD01F4A1278052AF6D9081AFF21FF3011
:1013B00090FBF1F201FB120086B21A48FFF723F806
:1013C0000025194F0BE020786423391801221548B5
:1013D000FFF7C3FC2078401C6D1C2070ADB2B542F5
:1013E000F1D31048FEF7F6FF10A0FFF78DFFD3E70B
:1013F00068656C6C6F2074686973206973206F6E08
:1014000065207769726520756172742064656D6FFF
:101410003A200D0A00000000020000200100002018
:101420000000002018010020180000200D0A000014
:101430000000000000000000010203040607080984
:1014400000000000010203046814000800000020EE
:10145000180000001813000880140008180000206D
:1014600040050000281300080000000000A24A0404
:10147000010000001000000000000000000000005B
:04000005080000ED02
:00000001FF
